{
  "contractName": "EventEmitter",
  "abi": [
    {
      "inputs": [
        {
          "name": "uintValue",
          "type": "uint8"
        },
        {
          "name": "booleanValue",
          "type": "bool"
        },
        {
          "name": "stringValue",
          "type": "string"
        }
      ],
      "payable": false,
      "stateMutability": "nonpayable",
      "type": "constructor"
    },
    {
      "anonymous": false,
      "inputs": [],
      "name": "Argumentless",
      "type": "event"
    },
    {
      "anonymous": false,
      "inputs": [
        {
          "indexed": false,
          "name": "value",
          "type": "uint8"
        }
      ],
      "name": "ShortUint",
      "type": "event"
    },
    {
      "anonymous": false,
      "inputs": [
        {
          "indexed": false,
          "name": "value",
          "type": "int8"
        }
      ],
      "name": "ShortInt",
      "type": "event"
    },
    {
      "anonymous": false,
      "inputs": [
        {
          "indexed": false,
          "name": "value",
          "type": "uint256"
        }
      ],
      "name": "LongUint",
      "type": "event"
    },
    {
      "anonymous": false,
      "inputs": [
        {
          "indexed": false,
          "name": "value",
          "type": "int256"
        }
      ],
      "name": "LongInt",
      "type": "event"
    },
    {
      "anonymous": false,
      "inputs": [
        {
          "indexed": false,
          "name": "value",
          "type": "address"
        }
      ],
      "name": "Address",
      "type": "event"
    },
    {
      "anonymous": false,
      "inputs": [
        {
          "indexed": false,
          "name": "value",
          "type": "bool"
        }
      ],
      "name": "Boolean",
      "type": "event"
    },
    {
      "anonymous": false,
      "inputs": [
        {
          "indexed": false,
          "name": "value",
          "type": "string"
        }
      ],
      "name": "String",
      "type": "event"
    },
    {
      "anonymous": false,
      "inputs": [
        {
          "indexed": false,
          "name": "uintValue",
          "type": "uint256"
        },
        {
          "indexed": false,
          "name": "booleanValue",
          "type": "bool"
        },
        {
          "indexed": false,
          "name": "stringValue",
          "type": "string"
        }
      ],
      "name": "LongUintBooleanString",
      "type": "event"
    },
    {
      "anonymous": false,
      "inputs": [
        {
          "indexed": false,
          "name": "value",
          "type": "bytes"
        }
      ],
      "name": "Bytes",
      "type": "event"
    },
    {
      "constant": false,
      "inputs": [],
      "name": "emitArgumentless",
      "outputs": [],
      "payable": false,
      "stateMutability": "nonpayable",
      "type": "function"
    },
    {
      "constant": false,
      "inputs": [
        {
          "name": "value",
          "type": "uint8"
        }
      ],
      "name": "emitShortUint",
      "outputs": [],
      "payable": false,
      "stateMutability": "nonpayable",
      "type": "function"
    },
    {
      "constant": false,
      "inputs": [
        {
          "name": "value",
          "type": "int8"
        }
      ],
      "name": "emitShortInt",
      "outputs": [],
      "payable": false,
      "stateMutability": "nonpayable",
      "type": "function"
    },
    {
      "constant": false,
      "inputs": [
        {
          "name": "value",
          "type": "uint256"
        }
      ],
      "name": "emitLongUint",
      "outputs": [],
      "payable": false,
      "stateMutability": "nonpayable",
      "type": "function"
    },
    {
      "constant": false,
      "inputs": [
        {
          "name": "value",
          "type": "int256"
        }
      ],
      "name": "emitLongInt",
      "outputs": [],
      "payable": false,
      "stateMutability": "nonpayable",
      "type": "function"
    },
    {
      "constant": false,
      "inputs": [
        {
          "name": "value",
          "type": "address"
        }
      ],
      "name": "emitAddress",
      "outputs": [],
      "payable": false,
      "stateMutability": "nonpayable",
      "type": "function"
    },
    {
      "constant": false,
      "inputs": [
        {
          "name": "value",
          "type": "bool"
        }
      ],
      "name": "emitBoolean",
      "outputs": [],
      "payable": false,
      "stateMutability": "nonpayable",
      "type": "function"
    },
    {
      "constant": false,
      "inputs": [
        {
          "name": "value",
          "type": "string"
        }
      ],
      "name": "emitString",
      "outputs": [],
      "payable": false,
      "stateMutability": "nonpayable",
      "type": "function"
    },
    {
      "constant": false,
      "inputs": [
        {
          "name": "value",
          "type": "bytes"
        }
      ],
      "name": "emitBytes",
      "outputs": [],
      "payable": false,
      "stateMutability": "nonpayable",
      "type": "function"
    },
    {
      "constant": false,
      "inputs": [
        {
          "name": "uintValue",
          "type": "uint256"
        },
        {
          "name": "booleanValue",
          "type": "bool"
        },
        {
          "name": "stringValue",
          "type": "string"
        }
      ],
      "name": "emitLongUintBooleanString",
      "outputs": [],
      "payable": false,
      "stateMutability": "nonpayable",
      "type": "function"
    },
    {
      "constant": false,
      "inputs": [
        {
          "name": "uintValue",
          "type": "uint256"
        },
        {
          "name": "boolValue",
          "type": "bool"
        }
      ],
      "name": "emitLongUintAndBoolean",
      "outputs": [],
      "payable": false,
      "stateMutability": "nonpayable",
      "type": "function"
    },
    {
      "constant": false,
      "inputs": [
        {
          "name": "value",
          "type": "string"
        },
        {
          "name": "emitter",
          "type": "address"
        }
      ],
      "name": "emitStringAndEmitIndirectly",
      "outputs": [],
      "payable": false,
      "stateMutability": "nonpayable",
      "type": "function"
    }
  ],
  "bytecode": "0x608060405234801561001057600080fd5b50604051610d9a380380610d9a8339810180604052606081101561003357600080fd5b810190808051906020019092919080519060200190929190805164010000000081111561005f57600080fd5b8281019050602081018481111561007557600080fd5b815185600182028301116401000000008211171561009257600080fd5b50509291905050507fa6fd495d53216ab7af47447be18c30075b4b9e8fd2c84b6a16c5edd3ee387c6a83604051808260ff1660ff16815260200191505060405180910390a17f5f1a7d146ac3559fb06af8d44e7c16d6e709e4414b75308362587cbdb2ed161182604051808215151515815260200191505060405180910390a17f589e6a98e08368f5d141bacf55d749854ec881c912e12422b4bb4edee2851a2e816040518080602001828103825283818151815260200191508051906020019080838360005b83811015610174578082015181840152602081019050610159565b50505050905090810190601f1680156101a15780820380516001836020036101000a031916815260200191505b509250505060405180910390a1505050610bda806101c06000396000f3fe6080604052600436106100ba576000357c0100000000000000000000000000000000000000000000000000000000900463ffffffff16806314e90a10146100bf5780631ce8a349146100d657806323b05715146101115780632536f127146101f95780634699764f146102c15780635b12b18d146102ff578063972576741461033a578063c3cccbda14610418578063c76f06351461045f578063d398684314610527578063ec5c3ede14610564578063fd2fa64b146105b5575b600080fd5b3480156100cb57600080fd5b506100d46105f3565b005b3480156100e257600080fd5b5061010f600480360360208110156100f957600080fd5b8101908080359060200190929190505050610621565b005b34801561011d57600080fd5b506101f76004803603604081101561013457600080fd5b810190808035906020019064010000000081111561015157600080fd5b82018360208201111561016357600080fd5b8035906020019184600183028401116401000000008311171561018557600080fd5b91908080601f016020809104026020016040519081016040528093929190818152602001838380828437600081840152601f19601f820116905080830192505050505050509192919290803573ffffffffffffffffffffffffffffffffffffffff16906020019092919050505061065b565b005b34801561020557600080fd5b506102bf6004803603602081101561021c57600080fd5b810190808035906020019064010000000081111561023957600080fd5b82018360208201111561024b57600080fd5b8035906020019184600183028401116401000000008311171561026d57600080fd5b91908080601f016020809104026020016040519081016040528093929190818152602001838380828437600081840152601f19601f8201169050808301925050505050505091929192905050506107e7565b005b3480156102cd57600080fd5b506102fd600480360360208110156102e457600080fd5b81019080803560000b9060200190929190505050610886565b005b34801561030b57600080fd5b506103386004803603602081101561032257600080fd5b81019080803590602001909291905050506108c6565b005b34801561034657600080fd5b506104166004803603606081101561035d57600080fd5b81019080803590602001909291908035151590602001909291908035906020019064010000000081111561039057600080fd5b8201836020820111156103a257600080fd5b803590602001918460018302840111640100000000831117156103c457600080fd5b91908080601f016020809104026020016040519081016040528093929190818152602001838380828437600081840152601f19601f820116905080830192505050505050509192919290505050610900565b005b34801561042457600080fd5b5061045d6004803603604081101561043b57600080fd5b81019080803590602001909291908035151590602001909291905050506109b5565b005b34801561046b57600080fd5b506105256004803603602081101561048257600080fd5b810190808035906020019064010000000081111561049f57600080fd5b8201836020820111156104b157600080fd5b803590602001918460018302840111640100000000831117156104d357600080fd5b91908080601f016020809104026020016040519081016040528093929190818152602001838380828437600081840152601f19601f820116905080830192505050505050509192919290505050610a2b565b005b34801561053357600080fd5b506105626004803603602081101561054a57600080fd5b81019080803515159060200190929190505050610aca565b005b34801561057057600080fd5b506105b36004803603602081101561058757600080fd5b81019080803573ffffffffffffffffffffffffffffffffffffffff169060200190929190505050610b08565b005b3480156105c157600080fd5b506105f1600480360360208110156105d857600080fd5b81019080803560ff169060200190929190505050610b6e565b005b7fbe067714c11211adaac353c472c6022ce9927bc5190b38283b83c29d82cfeac860405160405180910390a1565b7fa84b4a529c360270e8511a17443da20c15be835343f9358f548b64cf722dbc90816040518082815260200191505060405180910390a150565b7f589e6a98e08368f5d141bacf55d749854ec881c912e12422b4bb4edee2851a2e826040518080602001828103825283818151815260200191508051906020019080838360005b838110156106bd5780820151818401526020810190506106a2565b50505050905090810190601f1680156106ea5780820380516001836020036101000a031916815260200191505b509250505060405180910390a18073ffffffffffffffffffffffffffffffffffffffff166384f390fa836040518263ffffffff167c01000000000000000000000000000000000000000000000000000000000281526004018080602001828103825283818151815260200191508051906020019080838360005b8381101561077f578082015181840152602081019050610764565b50505050905090810190601f1680156107ac5780820380516001836020036101000a031916815260200191505b5092505050600060405180830381600087803b1580156107cb57600080fd5b505af11580156107df573d6000803e3d6000fd5b505050505050565b7f589e6a98e08368f5d141bacf55d749854ec881c912e12422b4bb4edee2851a2e816040518080602001828103825283818151815260200191508051906020019080838360005b8381101561084957808201518184015260208101905061082e565b50505050905090810190601f1680156108765780820380516001836020036101000a031916815260200191505b509250505060405180910390a150565b7f6dfd09553edfd4a7760ca7fe1965b13913f18ff03029ff89f97f8c111ad8f9fc81604051808260000b60000b815260200191505060405180910390a150565b7fe5457628747787b496f254674feec51edaeff98055778f739971d3b4002af8d2816040518082815260200191505060405180910390a150565b7f594c091fded0306cf1bf72ebf396116d5ab9ce736177f19bcebd74b1a15dcee9838383604051808481526020018315151515815260200180602001828103825283818151815260200191508051906020019080838360005b83811015610974578082015181840152602081019050610959565b50505050905090810190601f1680156109a15780820380516001836020036101000a031916815260200191505b5094505050505060405180910390a1505050565b7fa84b4a529c360270e8511a17443da20c15be835343f9358f548b64cf722dbc90826040518082815260200191505060405180910390a17f5f1a7d146ac3559fb06af8d44e7c16d6e709e4414b75308362587cbdb2ed161181604051808215151515815260200191505060405180910390a15050565b7f24ace672d0b56bb74d7b34faba262f0ca4bc2f84bc4494f66422a1c5f810d76b816040518080602001828103825283818151815260200191508051906020019080838360005b83811015610a8d578082015181840152602081019050610a72565b50505050905090810190601f168015610aba5780820380516001836020036101000a031916815260200191505b509250505060405180910390a150565b7f5f1a7d146ac3559fb06af8d44e7c16d6e709e4414b75308362587cbdb2ed161181604051808215151515815260200191505060405180910390a150565b7febfb412ded3f9cdb15b75308503b279416e74d382f6ce86eedee0ef3130fa9e381604051808273ffffffffffffffffffffffffffffffffffffffff1673ffffffffffffffffffffffffffffffffffffffff16815260200191505060405180910390a150565b7fa6fd495d53216ab7af47447be18c30075b4b9e8fd2c84b6a16c5edd3ee387c6a81604051808260ff1660ff16815260200191505060405180910390a15056fea165627a7a72305820cbd1d46ac749184babd4ec589f481b1e93b65167812125b3ed5f717ba1ae511c0029",
  "source": "pragma solidity ^0.5.0;\n\nimport \"./IndirectEventEmitter.sol\";\n\ncontract EventEmitter {\n    event Argumentless();\n    event ShortUint(uint8 value);\n    event ShortInt(int8 value);\n    event LongUint(uint256 value);\n    event LongInt(int256 value);\n    event Address(address value);\n    event Boolean(bool value);\n    event String(string value);\n    event LongUintBooleanString(uint256 uintValue, bool booleanValue, string stringValue);\n    event Bytes(bytes value);\n\n    constructor (uint8 uintValue, bool booleanValue, string memory stringValue) public {\n        emit ShortUint(uintValue);\n        emit Boolean(booleanValue);\n        emit String(stringValue);\n    }\n\n    function emitArgumentless() public {\n        emit Argumentless();\n    }\n\n    function emitShortUint(uint8 value) public {\n        emit ShortUint(value);\n    }\n\n    function emitShortInt(int8 value) public {\n        emit ShortInt(value);\n    }\n\n    function emitLongUint(uint256 value) public {\n        emit LongUint(value);\n    }\n\n    function emitLongInt(int256 value) public {\n        emit LongInt(value);\n    }\n\n    function emitAddress(address value) public {\n        emit Address(value);\n    }\n\n    function emitBoolean(bool value) public {\n        emit Boolean(value);\n    }\n\n    function emitString(string memory value) public {\n        emit String(value);\n    }\n\n    function emitBytes(bytes memory value) public {\n        emit Bytes(value);\n    }\n\n    function emitLongUintBooleanString(uint256 uintValue, bool booleanValue, string memory stringValue) public {\n        emit LongUintBooleanString(uintValue, booleanValue, stringValue);\n    }\n\n    function emitLongUintAndBoolean(uint256 uintValue, bool boolValue) public {\n        emit LongUint(uintValue);\n        emit Boolean(boolValue);\n    }\n\n    function emitStringAndEmitIndirectly(string memory value, IndirectEventEmitter emitter) public {\n        emit String(value);\n        emitter.emitStringIndirectly(value);\n    }\n}\n",
  "sourcePath": "/home/rav/proj/mini-proj/contracts/mocks/EventEmitter.sol",
  "compiler": {
    "name": "solc",
    "version": "0.5.0+commit.1d4f565a.Emscripten.clang"
  },
  "schemaVersion": "3.0.1",
  "updatedAt": "2019-01-26T13:02:31.667Z",
  "devdoc": {
    "methods": {}
  },
  "userdoc": {
    "methods": {}
  }
}