{
  "contractName": "IndirectEventEmitter",
  "abi": [
    {
      "anonymous": false,
      "inputs": [
        {
          "indexed": false,
          "name": "value",
          "type": "string"
        }
      ],
      "name": "IndirectString",
      "type": "event"
    },
    {
      "constant": false,
      "inputs": [
        {
          "name": "value",
          "type": "string"
        }
      ],
      "name": "emitStringIndirectly",
      "outputs": [],
      "payable": false,
      "stateMutability": "nonpayable",
      "type": "function"
    }
  ],
  "bytecode": "0x608060405234801561001057600080fd5b506101d9806100206000396000f3fe608060405260043610610041576000357c0100000000000000000000000000000000000000000000000000000000900463ffffffff16806384f390fa14610046575b600080fd5b34801561005257600080fd5b5061010c6004803603602081101561006957600080fd5b810190808035906020019064010000000081111561008657600080fd5b82018360208201111561009857600080fd5b803590602001918460018302840111640100000000831117156100ba57600080fd5b91908080601f016020809104026020016040519081016040528093929190818152602001838380828437600081840152601f19601f82011690508083019250505050505050919291929050505061010e565b005b7ff58431b083f570a2ac1a2ef2f04cfc1853f71c6c0794807e35d5cdb99834b0ca816040518080602001828103825283818151815260200191508051906020019080838360005b83811015610170578082015181840152602081019050610155565b50505050905090810190601f16801561019d5780820380516001836020036101000a031916815260200191505b509250505060405180910390a15056fea165627a7a723058204f1e54d93a0642a81205d9fec4260718ed134c9658bd4d60327090a5c57834f80029",
  "source": "pragma solidity ^0.5.0;\n\ncontract EventEmitter {\n    event Argumentless();\n    event ShortUint(uint8 value);\n    event ShortInt(int8 value);\n    event LongUint(uint256 value);\n    event LongInt(int256 value);\n    event Address(address value);\n    event Boolean(bool value);\n    event String(string value);\n    event LongUintBooleanString(uint256 uintValue, bool booleanValue, string stringValue);\n\n    constructor (uint8 uintValue, bool booleanValue, string memory stringValue) public {\n        emit ShortUint(uintValue);\n        emit Boolean(booleanValue);\n        emit String(stringValue);\n    }\n\n    function emitArgumentless() public {\n        emit Argumentless();\n    }\n\n    function emitShortUint(uint8 value) public {\n        emit ShortUint(value);\n    }\n\n    function emitShortInt(int8 value) public {\n        emit ShortInt(value);\n    }\n\n    function emitLongUint(uint256 value) public {\n        emit LongUint(value);\n    }\n\n    function emitLongInt(int256 value) public {\n        emit LongInt(value);\n    }\n\n    function emitAddress(address value) public {\n        emit Address(value);\n    }\n\n    function emitBoolean(bool value) public {\n        emit Boolean(value);\n    }\n\n    function emitString(string memory value) public {\n        emit String(value);\n    }\n\n    function emitLongUintBooleanString(uint256 uintValue, bool booleanValue, string memory stringValue) public {\n        emit LongUintBooleanString(uintValue, booleanValue, stringValue);\n    }\n\n    function emitLongUintAndBoolean(uint256 uintValue, bool boolValue) public {\n        emit LongUint(uintValue);\n        emit Boolean(boolValue);\n    }\n\n    function emitStringAndEmitIndirectly(string memory value, IndirectEventEmitter emitter) public {\n        emit String(value);\n        emitter.emitStringIndirectly(value);\n    }\n}\n\ncontract IndirectEventEmitter {\n    event IndirectString(string value);\n\n    function emitStringIndirectly(string memory value) public {\n        emit IndirectString(value);\n    }\n}\n",
  "sourcePath": "/home/rav/proj/mini-proj/contracts/mocks/EventEmitter.sol",
  "compiler": {
    "name": "solc",
    "version": "0.5.0+commit.1d4f565a.Emscripten.clang"
  },
  "schemaVersion": "3.0.1",
  "updatedAt": "2019-01-17T04:36:49.053Z",
  "devdoc": {
    "methods": {}
  },
  "userdoc": {
    "methods": {}
  }
}