{
  "contractName": "SignTheDoc",
  "abi": [
    {
      "constant": true,
      "inputs": [
        {
          "name": "docHash",
          "type": "bytes32"
        }
      ],
      "name": "isAuthorised",
      "outputs": [
        {
          "name": "",
          "type": "bool"
        }
      ],
      "payable": false,
      "stateMutability": "view",
      "type": "function"
    },
    {
      "constant": true,
      "inputs": [
        {
          "name": "creator",
          "type": "address"
        },
        {
          "name": "signerDocHash",
          "type": "bytes32"
        }
      ],
      "name": "signerValidation",
      "outputs": [
        {
          "name": "",
          "type": "bool"
        }
      ],
      "payable": false,
      "stateMutability": "view",
      "type": "function"
    },
    {
      "constant": false,
      "inputs": [
        {
          "name": "expiryDate",
          "type": "uint256"
        },
        {
          "name": "signature",
          "type": "bytes"
        },
        {
          "name": "authorisedSignerList",
          "type": "address[]"
        },
        {
          "name": "docHash",
          "type": "bytes32"
        },
        {
          "name": "r",
          "type": "bytes32"
        },
        {
          "name": "s",
          "type": "bytes32"
        },
        {
          "name": "v",
          "type": "uint8"
        }
      ],
      "name": "createDocToSign",
      "outputs": [],
      "payable": false,
      "stateMutability": "nonpayable",
      "type": "function"
    },
    {
      "constant": false,
      "inputs": [
        {
          "name": "expiryDate",
          "type": "uint256"
        },
        {
          "name": "signature",
          "type": "bytes"
        },
        {
          "name": "authorisedSignerList",
          "type": "address[]"
        },
        {
          "name": "docHash",
          "type": "bytes32"
        }
      ],
      "name": "recordInitialDoc",
      "outputs": [],
      "payable": false,
      "stateMutability": "nonpayable",
      "type": "function"
    },
    {
      "constant": true,
      "inputs": [
        {
          "name": "regDocHash",
          "type": "bytes32"
        }
      ],
      "name": "getDocData",
      "outputs": [
        {
          "name": "creatorAddress",
          "type": "address"
        },
        {
          "name": "creationDate",
          "type": "uint256"
        },
        {
          "name": "expiryDate",
          "type": "uint256"
        },
        {
          "name": "docHash",
          "type": "bytes32"
        },
        {
          "name": "signature",
          "type": "bytes"
        },
        {
          "name": "authorisedSigners",
          "type": "address[]"
        },
        {
          "name": "whoSigned",
          "type": "address[]"
        }
      ],
      "payable": false,
      "stateMutability": "view",
      "type": "function"
    },
    {
      "constant": false,
      "inputs": [
        {
          "name": "creator",
          "type": "address"
        },
        {
          "name": "signerDocHash",
          "type": "bytes32"
        },
        {
          "name": "r",
          "type": "bytes32"
        },
        {
          "name": "s",
          "type": "bytes32"
        },
        {
          "name": "v",
          "type": "uint8"
        },
        {
          "name": "signature",
          "type": "bytes"
        }
      ],
      "name": "signTheDoc",
      "outputs": [],
      "payable": false,
      "stateMutability": "nonpayable",
      "type": "function"
    },
    {
      "constant": true,
      "inputs": [
        {
          "name": "signerDocHash",
          "type": "bytes32"
        },
        {
          "name": "signer",
          "type": "address"
        }
      ],
      "name": "getSignerInfo",
      "outputs": [
        {
          "name": "signerAddress",
          "type": "address"
        },
        {
          "name": "signedDate",
          "type": "uint256"
        },
        {
          "name": "docHash",
          "type": "bytes32"
        },
        {
          "name": "signature",
          "type": "bytes"
        }
      ],
      "payable": false,
      "stateMutability": "view",
      "type": "function"
    },
    {
      "constant": true,
      "inputs": [
        {
          "name": "docHash",
          "type": "bytes32"
        },
        {
          "name": "signer",
          "type": "address"
        }
      ],
      "name": "isAuthorisedToSign",
      "outputs": [
        {
          "name": "",
          "type": "bool"
        }
      ],
      "payable": false,
      "stateMutability": "view",
      "type": "function"
    }
  ],
  "bytecode": "0x608060405234801561001057600080fd5b5061196d806100206000396000f3fe60806040526004361061008e576000357c0100000000000000000000000000000000000000000000000000000000900463ffffffff168063257e888e1461009357806337738c1a1461021f5780636404a386146103b057806382661e1b146104035780638dc5c2ef14610476578063befdc7b11461058b578063d79902711461069e578063ef4da62d1461080e575b600080fd5b34801561009f57600080fd5b506100cc600480360360208110156100b657600080fd5b8101908080359060200190929190505050610881565b604051808873ffffffffffffffffffffffffffffffffffffffff1673ffffffffffffffffffffffffffffffffffffffff168152602001878152602001868152602001858152602001806020018060200180602001848103845287818151815260200191508051906020019080838360005b8381101561015857808201518184015260208101905061013d565b50505050905090810190601f1680156101855780820380516001836020036101000a031916815260200191505b50848103835286818151815260200191508051906020019060200280838360005b838110156101c15780820151818401526020810190506101a6565b50505050905001848103825285818151815260200191508051906020019060200280838360005b838110156102035780820151818401526020810190506101e8565b505050509050019a505050505050505050505060405180910390f35b34801561022b57600080fd5b506103ae600480360360e081101561024257600080fd5b81019080803590602001909291908035906020019064010000000081111561026957600080fd5b82018360208201111561027b57600080fd5b8035906020019184600183028401116401000000008311171561029d57600080fd5b91908080601f016020809104026020016040519081016040528093929190818152602001838380828437600081840152601f19601f8201169050808301925050505050505091929192908035906020019064010000000081111561030057600080fd5b82018360208201111561031257600080fd5b8035906020019184602083028401116401000000008311171561033457600080fd5b919080806020026020016040519081016040528093929190818152602001838360200280828437600081840152601f19601f820116905080830192505050505050509192919290803590602001909291908035906020019092919080359060200190929190803560ff169060200190929190505050610b2d565b005b3480156103bc57600080fd5b506103e9600480360360208110156103d357600080fd5b8101908080359060200190929190505050610e41565b604051808215151515815260200191505060405180910390f35b34801561040f57600080fd5b5061045c6004803603604081101561042657600080fd5b81019080803573ffffffffffffffffffffffffffffffffffffffff16906020019092919080359060200190929190505050610ed6565b604051808215151515815260200191505060405180910390f35b34801561048257600080fd5b506104cf6004803603604081101561049957600080fd5b8101908080359060200190929190803573ffffffffffffffffffffffffffffffffffffffff169060200190929190505050610fe1565b604051808573ffffffffffffffffffffffffffffffffffffffff1673ffffffffffffffffffffffffffffffffffffffff16815260200184815260200183815260200180602001828103825283818151815260200191508051906020019080838360005b8381101561054d578082015181840152602081019050610532565b50505050905090810190601f16801561057a5780820380516001836020036101000a031916815260200191505b509550505050505060405180910390f35b34801561059757600080fd5b5061069c600480360360c08110156105ae57600080fd5b81019080803573ffffffffffffffffffffffffffffffffffffffff169060200190929190803590602001909291908035906020019092919080359060200190929190803560ff1690602001909291908035906020019064010000000081111561061657600080fd5b82018360208201111561062857600080fd5b8035906020019184600183028401116401000000008311171561064a57600080fd5b91908080601f016020809104026020016040519081016040528093929190818152602001838380828437600081840152601f19601f820116905080830192505050505050509192919290505050611186565b005b3480156106aa57600080fd5b5061080c600480360360808110156106c157600080fd5b8101908080359060200190929190803590602001906401000000008111156106e857600080fd5b8201836020820111156106fa57600080fd5b8035906020019184600183028401116401000000008311171561071c57600080fd5b91908080601f016020809104026020016040519081016040528093929190818152602001838380828437600081840152601f19601f8201169050808301925050505050505091929192908035906020019064010000000081111561077f57600080fd5b82018360208201111561079157600080fd5b803590602001918460208302840111640100000000831117156107b357600080fd5b919080806020026020016040519081016040528093929190818152602001838360200280828437600081840152601f19601f82011690508083019250505050505050919291929080359060200190929190505050611482565b005b34801561081a57600080fd5b506108676004803603604081101561083157600080fd5b8101908080359060200190929190803573ffffffffffffffffffffffffffffffffffffffff16906020019092919050505061164b565b604051808215151515815260200191505060405180910390f35b60008060008060608060606108946116b6565b600160008a815260200190815260200160002060e060405190810160405290816000820160009054906101000a900473ffffffffffffffffffffffffffffffffffffffff1673ffffffffffffffffffffffffffffffffffffffff1673ffffffffffffffffffffffffffffffffffffffff168152602001600182015481526020016002820154815260200160038201548152602001600482018054600181600116156101000203166002900480601f0160208091040260200160405190810160405280929190818152602001828054600181600116156101000203166002900480156109c05780601f10610995576101008083540402835291602001916109c0565b820191906000526020600020905b8154815290600101906020018083116109a357829003601f168201915b5050505050815260200160058201805480602002602001604051908101604052809291908181526020018280548015610a4e57602002820191906000526020600020905b8160009054906101000a900473ffffffffffffffffffffffffffffffffffffffff1673ffffffffffffffffffffffffffffffffffffffff1681526020019060010190808311610a04575b5050505050815260200160068201805480602002602001604051908101604052809291908181526020018280548015610adc57602002820191906000526020600020905b8160009054906101000a900473ffffffffffffffffffffffffffffffffffffffff1673ffffffffffffffffffffffffffffffffffffffff1681526020019060010190808311610a92575b5050505050815250509050806000015181602001518260400151836060015184608001518560a001518660c00151829250819150809050975097509750975097509750975050919395979092949650565b8360006001026001600083815260200190815260200160002060030154141515610bbf576040517f08c379a00000000000000000000000000000000000000000000000000000000081526004018080602001828103825260148152602001807f48617368206d75737420626520756e697175652e00000000000000000000000081525060200191505060405180910390fd5b874281111515610c5d576040517f08c379a00000000000000000000000000000000000000000000000000000000081526004018080602001828103825260398152602001807f436f6e74726163742065787069727920646174652073686f756c64206265206781526020017f726561746572207468616e2063757272656e742074696d652e0000000000000081525060400191505060405180910390fd5b8585858560606040805190810160405280601c81526020017f19457468657265756d205369676e6564204d6573736167653a0a3332000000008152509050600081866040516020018083805190602001908083835b602083101515610cd75780518252602082019150602081019050602083039250610cb2565b6001836020036101000a038019825116818451168082178552505050505050905001828152602001925050506040516020818303038152906040528051906020012090503373ffffffffffffffffffffffffffffffffffffffff1660018285888860405160008152602001604052604051808581526020018460ff1660ff1681526020018381526020018281526020019450505050506020604051602081039080840390855afa158015610d8f573d6000803e3d6000fd5b5050506020604051035173ffffffffffffffffffffffffffffffffffffffff16141515610e24576040517f08c379a000000000000000000000000000000000000000000000000000000000815260040180806020018281038252601d8152602001807f5369676e617475726520766572696669636174696f6e206661696c656400000081525060200191505060405180910390fd5b610e308f8f8f8f611482565b505050505050505050505050505050565b60008060016000848152602001908152602001600020600501805490501415610e6d5760019050610ed1565b6001600083815260200190815260200160002060070160003373ffffffffffffffffffffffffffffffffffffffff1673ffffffffffffffffffffffffffffffffffffffff16815260200190815260200160002060009054906101000a900460ff1690505b919050565b60008273ffffffffffffffffffffffffffffffffffffffff166001600084815260200190815260200160002060000160009054906101000a900473ffffffffffffffffffffffffffffffffffffffff1673ffffffffffffffffffffffffffffffffffffffff16141515610fd7576040517f08c379a00000000000000000000000000000000000000000000000000000000081526004018080602001828103825260218152602001807f4661696c656420746f207665726966792063726561746f72206164647265737381526020017f2e0000000000000000000000000000000000000000000000000000000000000081525060400191505060405180910390fd5b6001905092915050565b60008060006060610ff061170d565b6001600088815260200190815260200160002060080160008773ffffffffffffffffffffffffffffffffffffffff1673ffffffffffffffffffffffffffffffffffffffff168152602001908152602001600020608060405190810160405290816000820160009054906101000a900473ffffffffffffffffffffffffffffffffffffffff1673ffffffffffffffffffffffffffffffffffffffff1673ffffffffffffffffffffffffffffffffffffffff1681526020016001820154815260200160028201548152602001600382018054600181600116156101000203166002900480601f0160208091040260200160405190810160405280929190818152602001828054600181600116156101000203166002900480156111525780601f1061112757610100808354040283529160200191611152565b820191906000526020600020905b81548152906001019060200180831161113557829003601f168201915b5050505050815250509050806000015181602001518260400151836060015180905094509450945094505092959194509250565b8484848460606040805190810160405280601c81526020017f19457468657265756d205369676e6564204d6573736167653a0a3332000000008152509050600081866040516020018083805190602001908083835b60208310151561120057805182526020820191506020810190506020830392506111db565b6001836020036101000a038019825116818451168082178552505050505050905001828152602001925050506040516020818303038152906040528051906020012090503373ffffffffffffffffffffffffffffffffffffffff1660018285888860405160008152602001604052604051808581526020018460ff1660ff1681526020018381526020018281526020019450505050506020604051602081039080840390855afa1580156112b8573d6000803e3d6000fd5b5050506020604051035173ffffffffffffffffffffffffffffffffffffffff1614151561134d576040517f08c379a000000000000000000000000000000000000000000000000000000000815260040180806020018281038252601d8152602001807f5369676e617475726520766572696669636174696f6e206661696c656400000081525060200191505060405180910390fd5b6113578c8c610ed6565b151561136257600080fd5b61136a61170d565b6080604051908101604052803373ffffffffffffffffffffffffffffffffffffffff1681526020014281526020018d815260200189815250905080600160008e815260200190815260200160002060080160003373ffffffffffffffffffffffffffffffffffffffff1673ffffffffffffffffffffffffffffffffffffffff16815260200190815260200160002060008201518160000160006101000a81548173ffffffffffffffffffffffffffffffffffffffff021916908373ffffffffffffffffffffffffffffffffffffffff1602179055506020820151816001015560408201518160020155606082015181600301908051906020019061146f92919061174f565b5090505050505050505050505050505050565b6000600160008381526020019081526020016000209050338160000160006101000a81548173ffffffffffffffffffffffffffffffffffffffff021916908373ffffffffffffffffffffffffffffffffffffffff1602179055504281600101819055508481600201819055508181600301819055508381600401908051906020019061150f9291906117cf565b508281600501908051906020019061152892919061184f565b506001835114156115aa57600181600701600085600081518110151561154a57fe5b9060200190602002015173ffffffffffffffffffffffffffffffffffffffff1673ffffffffffffffffffffffffffffffffffffffff16815260200190815260200160002060006101000a81548160ff021916908315150217905550611644565b6001835111156116435760008090505b835181101561164157600182600701600086848151811015156115d957fe5b9060200190602002015173ffffffffffffffffffffffffffffffffffffffff1673ffffffffffffffffffffffffffffffffffffffff16815260200190815260200160002060006101000a81548160ff02191690831515021790555080806001019150506115ba565b505b5b5050505050565b60006001600084815260200190815260200160002060070160008373ffffffffffffffffffffffffffffffffffffffff1673ffffffffffffffffffffffffffffffffffffffff16815260200190815260200160002060009054906101000a900460ff16905092915050565b60e060405190810160405280600073ffffffffffffffffffffffffffffffffffffffff1681526020016000815260200160008152602001600080191681526020016060815260200160608152602001606081525090565b608060405190810160405280600073ffffffffffffffffffffffffffffffffffffffff1681526020016000815260200160008019168152602001606081525090565b828054600181600116156101000203166002900490600052602060002090601f016020900481019282601f1061179057805160ff19168380011785556117be565b828001600101855582156117be579182015b828111156117bd5782518255916020019190600101906117a2565b5b5090506117cb91906118d9565b5090565b828054600181600116156101000203166002900490600052602060002090601f016020900481019282601f1061181057805160ff191683800117855561183e565b8280016001018555821561183e579182015b8281111561183d578251825591602001919060010190611822565b5b50905061184b91906118d9565b5090565b8280548282559060005260206000209081019282156118c8579160200282015b828111156118c75782518260006101000a81548173ffffffffffffffffffffffffffffffffffffffff021916908373ffffffffffffffffffffffffffffffffffffffff1602179055509160200191906001019061186f565b5b5090506118d591906118fe565b5090565b6118fb91905b808211156118f75760008160009055506001016118df565b5090565b90565b61193e91905b8082111561193a57600081816101000a81549073ffffffffffffffffffffffffffffffffffffffff021916905550600101611904565b5090565b9056fea165627a7a72305820e115ec404bd86587591c51d6efbaefb388988491a6522e823caaa54f9b0796390029",
  "source": "pragma solidity ^ 0.5.0;\n\ncontract SignTheDoc {\n\n  struct Creator {\n    address creatorAddress;\n    uint256 creationDate;\n    uint256 expiryDate;\n    bytes32 docHash;\n    bytes signature;\n    address[] authorisedSignerList;\n    address[] whoSigned;\n    mapping(address => bool) authorisedToSign;\n    mapping(address => Signer) signerInfo;\n  }\n\n  struct Signer {\n    address signerAddress;\n    uint256 signedDate;\n    bytes32 docHash;\n    bytes signature;\n  }\n\n  //Record of the creator hash creation for easy access\n  mapping(address => bytes32[]) creatorDocHashes;\n\n  //Hash of the data is linked to Creator Struct\n  mapping(bytes32 => Creator) docData;\n\n  //Probably unnecessary\n  Signer[] signers;\n\n  modifier isDocHashUnique(bytes32 docHash) {\n    require(\n      docData[docHash].docHash == bytes32(0),\n      'Hash must be unique.'\n    );\n    _;\n  }\n\n  modifier isExpired(uint256 expiryDate) {\n    require(\n      expiryDate > block.timestamp,\n      'Contract expiry date should be greater than current time.');\n    _;\n  }\n\n  modifier verifySignature(bytes32 hash, bytes32 r, bytes32 s, uint8 v) {\n    bytes memory prefix = \"\\x19Ethereum Signed Message:\\n32\";\n    bytes32 prefixedHash = keccak256(abi.encodePacked(prefix, hash));\n    require(ecrecover(prefixedHash, v, r, s) == msg.sender,\n      'Signature verification failed');\n    _;\n  }\n\n  modifier validateCreatorAddress(address creator, bytes32 signerDocHash) {\n    require(\n      docData[signerDocHash].creatorAddress == creator,\n      'Failed to verify creator address');\n    _;\n  }\n\n  function isAuthorised(bytes32 docHash) public view returns(bool) {\n    if (docData[docHash].authorisedSignerList.length == 0) {\n      return true;\n    } else {\n      return (docData[docHash].authorisedToSign[msg.sender]);\n    }\n  }\n\n  function signerValidation(address creator, bytes32 signerDocHash) public view returns(bool) {\n    require(\n      docData[signerDocHash].creatorAddress == creator,\n      'Failed to verify creator address.'\n    );\n    /*\n    require(\n      signerDocHash == docData[signerDocHash].docHash,\n      'Failed to verify document hash.'\n    );\n\n    require(\n      isAuthorised(signerDocHash),\n      'Provided address not authorised to sign the document.'\n    );\n    */\n\n    return true;\n  }\n\n  function createDocToSign(\n    uint256 expiryDate,\n    bytes memory signature,\n    address[] memory authorisedSignerList,\n    bytes32 docHash,\n    bytes32 r,\n    bytes32 s,\n    uint8 v\n  )\n  public\n  isDocHashUnique(docHash)\n  isExpired(expiryDate)\n  verifySignature(docHash, r, s, v)\n  {\n    recordInitialDoc(expiryDate, signature, authorisedSignerList, docHash);\n  }\n\n  function recordInitialDoc(uint256 expiryDate, bytes memory signature, address[] memory authorisedSignerList, bytes32 docHash)  public {\n    Creator storage creator = docData[docHash];\n\n    creator.creatorAddress = msg.sender;\n    creator.creationDate = block.timestamp;\n    creator.expiryDate = expiryDate;\n    creator.docHash = docHash;\n    creator.signature = signature;\n    creator.authorisedSignerList = authorisedSignerList;\n\n    if (authorisedSignerList.length == 1) {\n      creator.authorisedToSign[authorisedSignerList[0]] = true;\n    } else if (authorisedSignerList.length > 1) {\n      for (uint i = 0; i < authorisedSignerList.length; i++) {\n        creator.authorisedToSign[authorisedSignerList[i]] = true;\n      }\n    }\n  }\n\n  //Returns the content of the struct\n  function getDocData(bytes32 regDocHash)\n  public\n  view\n  returns(\n    address creatorAddress,\n    uint256 creationDate,\n    uint256 expiryDate,\n    bytes32 docHash,\n    bytes memory signature,\n    address[] memory authorisedSigners,\n    address[] memory whoSigned\n  ) {\n    Creator memory cr = docData[regDocHash];\n    return (cr.creatorAddress, cr.creationDate, cr.expiryDate, cr.docHash, cr.signature, cr.authorisedSignerList, cr.whoSigned);\n  }\n\n  function signTheDoc(address creator, bytes32 signerDocHash, bytes32 r, bytes32 s,uint8 v, bytes memory signature) public verifySignature(signerDocHash, r, s, v) {\n    require(signerValidation(creator, signerDocHash));\n    Signer memory signer = Signer(msg.sender, block.timestamp, signerDocHash, signature);\n    docData[signerDocHash].signerInfo[msg.sender] = signer;\n  }\n\n  function getSignerInfo(bytes32 signerDocHash, address signer)\n   public\n   view\n   returns(\n     address signerAddress,\n     uint256 signedDate,\n     bytes32 docHash,\n     bytes memory signature) {\n    Signer memory si = docData[signerDocHash].signerInfo[signer];\n    return (si.signerAddress, si.signedDate, si.docHash, si.signature);\n  }\n\n  function isAuthorisedToSign(bytes32 docHash, address signer) public view returns(bool) {\n    return docData[docHash].authorisedToSign[signer];\n  }\n\n}\n",
  "sourcePath": "/home/rav/proj/mini-proj/contracts/SignTheDoc.sol",
  "compiler": {
    "name": "solc",
    "version": "0.5.0+commit.1d4f565a.Emscripten.clang"
  },
  "schemaVersion": "3.0.1",
  "updatedAt": "2019-02-03T10:12:19.495Z",
  "devdoc": {
    "methods": {}
  },
  "userdoc": {
    "methods": {}
  }
}