{
  "contractName": "SignTheDoc",
  "abi": [
    {
      "constant": false,
      "inputs": [
        {
          "name": "expiryDate",
          "type": "uint256"
        },
        {
          "name": "signature",
          "type": "bytes"
        },
        {
          "name": "authorisedSignerList",
          "type": "address[]"
        },
        {
          "name": "docHash",
          "type": "bytes32"
        },
        {
          "name": "r",
          "type": "bytes32"
        },
        {
          "name": "s",
          "type": "bytes32"
        },
        {
          "name": "v",
          "type": "uint8"
        }
      ],
      "name": "createDocToSign",
      "outputs": [],
      "payable": false,
      "stateMutability": "nonpayable",
      "type": "function"
    },
    {
      "constant": false,
      "inputs": [
        {
          "name": "expiryDate",
          "type": "uint256"
        },
        {
          "name": "signature",
          "type": "bytes"
        },
        {
          "name": "authorisedSignerList",
          "type": "address[]"
        },
        {
          "name": "docHash",
          "type": "bytes32"
        }
      ],
      "name": "recordInitialDoc",
      "outputs": [],
      "payable": false,
      "stateMutability": "nonpayable",
      "type": "function"
    },
    {
      "constant": true,
      "inputs": [
        {
          "name": "hash",
          "type": "bytes32"
        },
        {
          "name": "r",
          "type": "bytes32"
        },
        {
          "name": "s",
          "type": "bytes32"
        },
        {
          "name": "v",
          "type": "uint8"
        }
      ],
      "name": "verifySignature",
      "outputs": [
        {
          "name": "",
          "type": "bool"
        }
      ],
      "payable": false,
      "stateMutability": "view",
      "type": "function"
    },
    {
      "constant": true,
      "inputs": [
        {
          "name": "docHash",
          "type": "bytes32"
        }
      ],
      "name": "getDocData",
      "outputs": [
        {
          "name": "creatorAddress",
          "type": "address"
        },
        {
          "name": "creationDate",
          "type": "uint256"
        },
        {
          "name": "expiryDate",
          "type": "uint256"
        },
        {
          "name": "dochash",
          "type": "bytes32"
        },
        {
          "name": "signature",
          "type": "bytes"
        },
        {
          "name": "authorisedSigners",
          "type": "address[]"
        },
        {
          "name": "whoSigned",
          "type": "address[]"
        }
      ],
      "payable": false,
      "stateMutability": "view",
      "type": "function"
    },
    {
      "constant": false,
      "inputs": [
        {
          "name": "signerDocHash",
          "type": "bytes32"
        },
        {
          "name": "signature",
          "type": "bytes"
        }
      ],
      "name": "signTheDoc",
      "outputs": [],
      "payable": false,
      "stateMutability": "nonpayable",
      "type": "function"
    },
    {
      "constant": true,
      "inputs": [
        {
          "name": "docHash",
          "type": "bytes32"
        },
        {
          "name": "signer",
          "type": "address"
        }
      ],
      "name": "isAuthorisedToSign",
      "outputs": [
        {
          "name": "",
          "type": "bool"
        }
      ],
      "payable": false,
      "stateMutability": "view",
      "type": "function"
    },
    {
      "constant": true,
      "inputs": [
        {
          "name": "docHash",
          "type": "bytes32"
        }
      ],
      "name": "getAutorisedSingingList",
      "outputs": [
        {
          "name": "",
          "type": "address[]"
        }
      ],
      "payable": false,
      "stateMutability": "view",
      "type": "function"
    },
    {
      "constant": true,
      "inputs": [
        {
          "name": "docHash",
          "type": "bytes32"
        }
      ],
      "name": "getWhoSigned",
      "outputs": [
        {
          "name": "",
          "type": "address[]"
        }
      ],
      "payable": false,
      "stateMutability": "view",
      "type": "function"
    }
  ],
  "bytecode": "0x608060405234801561001057600080fd5b50611465806100206000396000f3fe60806040526004361061008e576000357c0100000000000000000000000000000000000000000000000000000000900463ffffffff1680630d413d6214610093578063257e888e146101075780632fcde8ef1461029357806337738c1a146103655780639a3379e5146104f6578063d799027114610586578063df4610a9146106f6578063ef4da62d14610786575b600080fd5b34801561009f57600080fd5b506100ed600480360360808110156100b657600080fd5b81019080803590602001909291908035906020019092919080359060200190929190803560ff1690602001909291905050506107f9565b604051808215151515815260200191505060405180910390f35b34801561011357600080fd5b506101406004803603602081101561012a57600080fd5b8101908080359060200190929190505050610956565b604051808873ffffffffffffffffffffffffffffffffffffffff1673ffffffffffffffffffffffffffffffffffffffff168152602001878152602001868152602001858152602001806020018060200180602001848103845287818151815260200191508051906020019080838360005b838110156101cc5780820151818401526020810190506101b1565b50505050905090810190601f1680156101f95780820380516001836020036101000a031916815260200191505b50848103835286818151815260200191508051906020019060200280838360005b8381101561023557808201518184015260208101905061021a565b50505050905001848103825285818151815260200191508051906020019060200280838360005b8381101561027757808201518184015260208101905061025c565b505050509050019a505050505050505050505060405180910390f35b34801561029f57600080fd5b50610363600480360360408110156102b657600080fd5b8101908080359060200190929190803590602001906401000000008111156102dd57600080fd5b8201836020820111156102ef57600080fd5b8035906020019184600183028401116401000000008311171561031157600080fd5b91908080601f016020809104026020016040519081016040528093929190818152602001838380828437600081840152601f19601f820116905080830192505050505050509192919290505050610c02565b005b34801561037157600080fd5b506104f4600480360360e081101561038857600080fd5b8101908080359060200190929190803590602001906401000000008111156103af57600080fd5b8201836020820111156103c157600080fd5b803590602001918460018302840111640100000000831117156103e357600080fd5b91908080601f016020809104026020016040519081016040528093929190818152602001838380828437600081840152601f19601f8201169050808301925050505050505091929192908035906020019064010000000081111561044657600080fd5b82018360208201111561045857600080fd5b8035906020019184602083028401116401000000008311171561047a57600080fd5b919080806020026020016040519081016040528093929190818152602001838360200280828437600081840152601f19601f820116905080830192505050505050509192919290803590602001909291908035906020019092919080359060200190929190803560ff169060200190929190505050610de1565b005b34801561050257600080fd5b5061052f6004803603602081101561051957600080fd5b8101908080359060200190929190505050610e0d565b6040518080602001828103825283818151815260200191508051906020019060200280838360005b83811015610572578082015181840152602081019050610557565b505050509050019250505060405180910390f35b34801561059257600080fd5b506106f4600480360360808110156105a957600080fd5b8101908080359060200190929190803590602001906401000000008111156105d057600080fd5b8201836020820111156105e257600080fd5b8035906020019184600183028401116401000000008311171561060457600080fd5b91908080601f016020809104026020016040519081016040528093929190818152602001838380828437600081840152601f19601f8201169050808301925050505050505091929192908035906020019064010000000081111561066757600080fd5b82018360208201111561067957600080fd5b8035906020019184602083028401116401000000008311171561069b57600080fd5b919080806020026020016040519081016040528093929190818152602001838360200280828437600081840152601f19601f82011690508083019250505050505050919291929080359060200190929190505050610eb1565b005b34801561070257600080fd5b5061072f6004803603602081101561071957600080fd5b810190808035906020019092919050505061109f565b6040518080602001828103825283818151815260200191508051906020019060200280838360005b83811015610772578082015181840152602081019050610757565b505050509050019250505060405180910390f35b34801561079257600080fd5b506107df600480360360408110156107a957600080fd5b8101908080359060200190929190803573ffffffffffffffffffffffffffffffffffffffff169060200190929190505050611143565b604051808215151515815260200191505060405180910390f35b600060606040805190810160405280601c81526020017f19457468657265756d205369676e6564204d6573736167653a0a3332000000008152509050600081876040516020018083805190602001908083835b602083101515610871578051825260208201915060208101905060208303925061084c565b6001836020036101000a038019825116818451168082178552505050505050905001828152602001925050506040516020818303038152906040528051906020012090503373ffffffffffffffffffffffffffffffffffffffff1660018286898960405160008152602001604052604051808581526020018460ff1660ff1681526020018381526020018281526020019450505050506020604051602081039080840390855afa158015610929573d6000803e3d6000fd5b5050506020604051035173ffffffffffffffffffffffffffffffffffffffff161492505050949350505050565b60008060008060608060606109696111ae565b600160008a815260200190815260200160002060e060405190810160405290816000820160009054906101000a900473ffffffffffffffffffffffffffffffffffffffff1673ffffffffffffffffffffffffffffffffffffffff1673ffffffffffffffffffffffffffffffffffffffff168152602001600182015481526020016002820154815260200160038201548152602001600482018054600181600116156101000203166002900480601f016020809104026020016040519081016040528092919081815260200182805460018160011615610100020316600290048015610a955780601f10610a6a57610100808354040283529160200191610a95565b820191906000526020600020905b815481529060010190602001808311610a7857829003601f168201915b5050505050815260200160058201805480602002602001604051908101604052809291908181526020018280548015610b2357602002820191906000526020600020905b8160009054906101000a900473ffffffffffffffffffffffffffffffffffffffff1673ffffffffffffffffffffffffffffffffffffffff1681526020019060010190808311610ad9575b5050505050815260200160068201805480602002602001604051908101604052809291908181526020018280548015610bb157602002820191906000526020600020905b8160009054906101000a900473ffffffffffffffffffffffffffffffffffffffff1673ffffffffffffffffffffffffffffffffffffffff1681526020019060010190808311610b67575b5050505050815250509050806000015181602001518260400151836060015184608001518560a001518660c00151829250819150809050975097509750975097509750975050919395979092949650565b81600060016000838152602001908152602001600020600501805490501415610c375760011515610c3257600080fd5b610ca4565b6001600082815260200190815260200160002060070160003373ffffffffffffffffffffffffffffffffffffffff1673ffffffffffffffffffffffffffffffffffffffff16815260200190815260200160002060009054906101000a900460ff161515610ca357600080fd5b5b82600160008281526020019081526020016000206003015481141515610cc957600080fd5b610cd1611205565b6080604051908101604052803373ffffffffffffffffffffffffffffffffffffffff168152602001428152602001868152602001858152509050806001600087815260200190815260200160002060080160003373ffffffffffffffffffffffffffffffffffffffff1673ffffffffffffffffffffffffffffffffffffffff16815260200190815260200160002060008201518160000160006101000a81548173ffffffffffffffffffffffffffffffffffffffff021916908373ffffffffffffffffffffffffffffffffffffffff16021790555060208201518160010155604082015181600201556060820151816003019080519060200190610dd6929190611247565b509050505050505050565b610ded848484846107f9565b1515610df857600080fd5b610e0487878787610eb1565b50505050505050565b606060016000838152602001908152602001600020600601805480602002602001604051908101604052809291908181526020018280548015610ea557602002820191906000526020600020905b8160009054906101000a900473ffffffffffffffffffffffffffffffffffffffff1673ffffffffffffffffffffffffffffffffffffffff1681526020019060010190808311610e5b575b50505050509050919050565b6000600160008381526020019081526020016000209050338160000160006101000a81548173ffffffffffffffffffffffffffffffffffffffff021916908373ffffffffffffffffffffffffffffffffffffffff16021790555042816001018190555084816002018190555081816003018190555083816004019080519060200190610f3e9291906112c7565b5082816005019080519060200190610f57929190611347565b5060008351141515610f7d5782816005019080519060200190610f7b929190611347565b505b600183511415610ffe576001816007016000856000815181101515610f9e57fe5b9060200190602002015173ffffffffffffffffffffffffffffffffffffffff1673ffffffffffffffffffffffffffffffffffffffff16815260200190815260200160002060006101000a81548160ff021916908315150217905550611098565b6001835111156110975760008090505b8351811015611095576001826007016000868481518110151561102d57fe5b9060200190602002015173ffffffffffffffffffffffffffffffffffffffff1673ffffffffffffffffffffffffffffffffffffffff16815260200190815260200160002060006101000a81548160ff021916908315150217905550808060010191505061100e565b505b5b5050505050565b60606001600083815260200190815260200160002060050180548060200260200160405190810160405280929190818152602001828054801561113757602002820191906000526020600020905b8160009054906101000a900473ffffffffffffffffffffffffffffffffffffffff1673ffffffffffffffffffffffffffffffffffffffff16815260200190600101908083116110ed575b50505050509050919050565b60006001600084815260200190815260200160002060070160008373ffffffffffffffffffffffffffffffffffffffff1673ffffffffffffffffffffffffffffffffffffffff16815260200190815260200160002060009054906101000a900460ff16905092915050565b60e060405190810160405280600073ffffffffffffffffffffffffffffffffffffffff1681526020016000815260200160008152602001600080191681526020016060815260200160608152602001606081525090565b608060405190810160405280600073ffffffffffffffffffffffffffffffffffffffff1681526020016000815260200160008019168152602001606081525090565b828054600181600116156101000203166002900490600052602060002090601f016020900481019282601f1061128857805160ff19168380011785556112b6565b828001600101855582156112b6579182015b828111156112b557825182559160200191906001019061129a565b5b5090506112c391906113d1565b5090565b828054600181600116156101000203166002900490600052602060002090601f016020900481019282601f1061130857805160ff1916838001178555611336565b82800160010185558215611336579182015b8281111561133557825182559160200191906001019061131a565b5b50905061134391906113d1565b5090565b8280548282559060005260206000209081019282156113c0579160200282015b828111156113bf5782518260006101000a81548173ffffffffffffffffffffffffffffffffffffffff021916908373ffffffffffffffffffffffffffffffffffffffff16021790555091602001919060010190611367565b5b5090506113cd91906113f6565b5090565b6113f391905b808211156113ef5760008160009055506001016113d7565b5090565b90565b61143691905b8082111561143257600081816101000a81549073ffffffffffffffffffffffffffffffffffffffff0219169055506001016113fc565b5090565b9056fea165627a7a72305820946785cea157cf66fad63a7e8f4bc17cdb1baa67a69ccd99707849ae39985dff0029",
  "source": "pragma solidity ^0.5.0;\n\ncontract SignTheDoc {\n\n    struct Creator {\n        address creatorAddress;\n        uint256 creationDate;\n        uint256 expiryDate;\n        bytes32 docHash; \n        bytes signature; \n        address[] authorisedSignerList;\n        address[] whoSigned; \n        mapping(address => bool) authorisedToSign;\n        mapping(address => Signer) signerInfo;\n    }\n\n    struct Signer {\n        address signerAddress;\n        uint256 signedDate;\n        bytes32 hash;\n        bytes signture;\n    }\n\n    //Record of the creator hash creation for easy access\n    mapping(address => bytes32[]) creatorDocHashes;\n\n    //Hash of the data is linked to Creator Struct\n    mapping(bytes32 => Creator) docData;\n\n    //Probably unnecessary\n    Signer[] signers;\n\n\n  modifier isAuthorised(bytes32 docHash) {\n    if(docData[docHash].authorisedSignerList.length == 0) {\n      require(true);\n    } else {\n      require(docData[docHash].authorisedToSign[msg.sender]);\n    }\n      _;\n  }\n\n  modifier isDocHashSame(bytes32 signerDocHash) {\n    require(signerDocHash == docData[signerDocHash].docHash);\n    _;\n  }\n\n  function createDocToSign(\n    uint256 expiryDate,\n    bytes memory signature,\n    address[] memory authorisedSignerList,\n    bytes32 docHash,\n    bytes32 r,\n    bytes32 s,\n    uint8 v\n  )\n  public\n  {\n    require(verifySignature(docHash, r, s, v));\n    recordInitialDoc(\n      expiryDate,\n      signature,\n      authorisedSignerList,\n      docHash\n    );\n  }\n\n  function recordInitialDoc(\n    uint256 expiryDate,\n    bytes memory signature,\n    address[] memory authorisedSignerList,\n    bytes32 docHash\n  )\n  public\n  {\n    Creator storage creator = docData[docHash];\n\n    creator.creatorAddress = msg.sender;\n    creator.creationDate = block.timestamp;\n    creator.expiryDate = expiryDate;\n    creator.docHash = docHash;\n    creator.signature = signature;\n    //possible bug\n    creator.authorisedSignerList = authorisedSignerList;\n\n    if(authorisedSignerList.length != 0) {\n      creator.authorisedSignerList = authorisedSignerList;\n    }\n\n    if(authorisedSignerList.length == 1) {\n        creator.authorisedToSign[authorisedSignerList[0]] = true;\n    } else if (authorisedSignerList.length > 1) {\n        for (uint i = 0; i < authorisedSignerList.length; i++) {\n        creator.authorisedToSign[authorisedSignerList[i]] = true;\n      }\n  }\n}\n\n  function verifySignature(bytes32 hash, bytes32 r, bytes32 s, uint8 v) public view returns(bool) {\n    bytes memory prefix = \"\\x19Ethereum Signed Message:\\n32\";\n    bytes32 prefixedHash = keccak256(abi.encodePacked(prefix, hash));\n    return ecrecover(prefixedHash, v, r, s) == msg.sender;\n  }\n    //Retrun the content of the struct\n  function getDocData(bytes32 docHash)\n    public\n    view\n    returns(\n      address creatorAddress,\n      uint256 creationDate,\n      uint256 expiryDate,\n      bytes32 dochash,\n      bytes memory signature,\n      address[] memory authorisedSigners,\n      address[] memory whoSigned\n    )\n    {\n      Creator memory cr = docData[docHash];\n      return(\n        cr.creatorAddress,\n        cr.creationDate,\n        cr.expiryDate,\n        cr.docHash,\n        cr.signature,\n        cr.authorisedSignerList,\n        cr.whoSigned\n      );\n    }\n\n    function signTheDoc(bytes32 signerDocHash, bytes memory signature)\n      public\n      isAuthorised(signerDocHash)\n      isDocHashSame(signerDocHash)\n    {\n        Signer memory signer = Signer(msg.sender, block.timestamp, signerDocHash, signature);\n        docData[signerDocHash].signerInfo[msg.sender] = signer;\n    }\n\n    function isAuthorisedToSign(bytes32 docHash, address signer) public view returns(bool) {\n      return docData[docHash].authorisedToSign[signer];\n    }\n\n    function getAutorisedSingingList(bytes32 docHash) public view returns(address[] memory) {\n      return docData[docHash].authorisedSignerList;\n    }\n\n    function getWhoSigned(bytes32 docHash) public view returns(address[] memory) {\n      return docData[docHash].whoSigned;\n    }\n\n}\n",
  "sourcePath": "/home/rav/proj/mini-proj/contracts/SignTheDoc.sol",
  "compiler": {
    "name": "solc",
    "version": "0.5.0+commit.1d4f565a.Emscripten.clang"
  },
  "schemaVersion": "3.0.1",
  "updatedAt": "2019-01-17T04:36:49.059Z",
  "devdoc": {
    "methods": {}
  },
  "userdoc": {
    "methods": {}
  }
}