{
  "contractName": "SignTheDoc",
  "abi": [
    {
      "constant": false,
      "inputs": [
        {
          "name": "creatorAddress",
          "type": "address"
        },
        {
          "name": "expiryDate",
          "type": "uint256"
        },
        {
          "name": "signature",
          "type": "bytes"
        },
        {
          "name": "authorisedSignerList",
          "type": "address[]"
        },
        {
          "name": "docHash",
          "type": "bytes32"
        },
        {
          "name": "r",
          "type": "bytes32"
        },
        {
          "name": "s",
          "type": "bytes32"
        },
        {
          "name": "v",
          "type": "uint8"
        }
      ],
      "name": "createDocToSign",
      "outputs": [],
      "payable": false,
      "stateMutability": "nonpayable",
      "type": "function"
    },
    {
      "constant": false,
      "inputs": [
        {
          "name": "creatorAddress",
          "type": "address"
        },
        {
          "name": "expiryDate",
          "type": "uint256"
        },
        {
          "name": "signature",
          "type": "bytes"
        },
        {
          "name": "authorisedSignerList",
          "type": "address[]"
        },
        {
          "name": "docHash",
          "type": "bytes32"
        }
      ],
      "name": "recordInitialDoc",
      "outputs": [],
      "payable": false,
      "stateMutability": "nonpayable",
      "type": "function"
    },
    {
      "constant": true,
      "inputs": [
        {
          "name": "hash",
          "type": "bytes32"
        },
        {
          "name": "r",
          "type": "bytes32"
        },
        {
          "name": "s",
          "type": "bytes32"
        },
        {
          "name": "v",
          "type": "uint8"
        }
      ],
      "name": "verifySignature",
      "outputs": [
        {
          "name": "",
          "type": "bool"
        }
      ],
      "payable": false,
      "stateMutability": "view",
      "type": "function"
    },
    {
      "constant": true,
      "inputs": [
        {
          "name": "docHash",
          "type": "bytes32"
        }
      ],
      "name": "getDocData",
      "outputs": [
        {
          "name": "creatorAddress",
          "type": "address"
        },
        {
          "name": "creationDate",
          "type": "uint256"
        },
        {
          "name": "expiryDate",
          "type": "uint256"
        },
        {
          "name": "dochash",
          "type": "bytes32"
        },
        {
          "name": "signature",
          "type": "bytes"
        },
        {
          "name": "authorisedSigners",
          "type": "address[]"
        },
        {
          "name": "whoSigned",
          "type": "address[]"
        }
      ],
      "payable": false,
      "stateMutability": "view",
      "type": "function"
    },
    {
      "constant": false,
      "inputs": [
        {
          "name": "signerDocHash",
          "type": "bytes32"
        },
        {
          "name": "signature",
          "type": "bytes"
        }
      ],
      "name": "signTheDoc",
      "outputs": [],
      "payable": false,
      "stateMutability": "nonpayable",
      "type": "function"
    },
    {
      "constant": true,
      "inputs": [
        {
          "name": "docHash",
          "type": "bytes32"
        },
        {
          "name": "signer",
          "type": "address"
        }
      ],
      "name": "isAuthorisedToSign",
      "outputs": [
        {
          "name": "",
          "type": "bool"
        }
      ],
      "payable": false,
      "stateMutability": "view",
      "type": "function"
    },
    {
      "constant": true,
      "inputs": [
        {
          "name": "docHash",
          "type": "bytes32"
        }
      ],
      "name": "getAutorisedSingingList",
      "outputs": [
        {
          "name": "",
          "type": "address[]"
        }
      ],
      "payable": false,
      "stateMutability": "view",
      "type": "function"
    },
    {
      "constant": true,
      "inputs": [
        {
          "name": "docHash",
          "type": "bytes32"
        }
      ],
      "name": "getWhoSigned",
      "outputs": [
        {
          "name": "",
          "type": "address[]"
        }
      ],
      "payable": false,
      "stateMutability": "view",
      "type": "function"
    }
  ],
  "bytecode": "0x608060405234801561001057600080fd5b506114a9806100206000396000f3fe60806040526004361061008e576000357c0100000000000000000000000000000000000000000000000000000000900463ffffffff1680630d413d6214610093578063257e888e146101075780632fcde8ef1461029357806398a1c94b146103655780639a3379e5146104f5578063df4610a914610585578063ef4da62d14610615578063f97aa3e614610688575b600080fd5b34801561009f57600080fd5b506100ed600480360360808110156100b657600080fd5b81019080803590602001909291908035906020019092919080359060200190929190803560ff16906020019092919050505061083a565b604051808215151515815260200191505060405180910390f35b34801561011357600080fd5b506101406004803603602081101561012a57600080fd5b8101908080359060200190929190505050610997565b604051808873ffffffffffffffffffffffffffffffffffffffff1673ffffffffffffffffffffffffffffffffffffffff168152602001878152602001868152602001858152602001806020018060200180602001848103845287818151815260200191508051906020019080838360005b838110156101cc5780820151818401526020810190506101b1565b50505050905090810190601f1680156101f95780820380516001836020036101000a031916815260200191505b50848103835286818151815260200191508051906020019060200280838360005b8381101561023557808201518184015260208101905061021a565b50505050905001848103825285818151815260200191508051906020019060200280838360005b8381101561027757808201518184015260208101905061025c565b505050509050019a505050505050505050505060405180910390f35b34801561029f57600080fd5b50610363600480360360408110156102b657600080fd5b8101908080359060200190929190803590602001906401000000008111156102dd57600080fd5b8201836020820111156102ef57600080fd5b8035906020019184600183028401116401000000008311171561031157600080fd5b91908080601f016020809104026020016040519081016040528093929190818152602001838380828437600081840152601f19601f820116905080830192505050505050509192919290505050610c43565b005b34801561037157600080fd5b506104f3600480360360a081101561038857600080fd5b81019080803573ffffffffffffffffffffffffffffffffffffffff16906020019092919080359060200190929190803590602001906401000000008111156103cf57600080fd5b8201836020820111156103e157600080fd5b8035906020019184600183028401116401000000008311171561040357600080fd5b91908080601f016020809104026020016040519081016040528093929190818152602001838380828437600081840152601f19601f8201169050808301925050505050505091929192908035906020019064010000000081111561046657600080fd5b82018360208201111561047857600080fd5b8035906020019184602083028401116401000000008311171561049a57600080fd5b919080806020026020016040519081016040528093929190818152602001838360200280828437600081840152601f19601f82011690508083019250505050505050919291929080359060200190929190505050610e22565b005b34801561050157600080fd5b5061052e6004803603602081101561051857600080fd5b8101908080359060200190929190505050611011565b6040518080602001828103825283818151815260200191508051906020019060200280838360005b83811015610571578082015181840152602081019050610556565b505050509050019250505060405180910390f35b34801561059157600080fd5b506105be600480360360208110156105a857600080fd5b81019080803590602001909291905050506110b5565b6040518080602001828103825283818151815260200191508051906020019060200280838360005b838110156106015780820151818401526020810190506105e6565b505050509050019250505060405180910390f35b34801561062157600080fd5b5061066e6004803603604081101561063857600080fd5b8101908080359060200190929190803573ffffffffffffffffffffffffffffffffffffffff169060200190929190505050611159565b604051808215151515815260200191505060405180910390f35b34801561069457600080fd5b5061083860048036036101008110156106ac57600080fd5b81019080803573ffffffffffffffffffffffffffffffffffffffff16906020019092919080359060200190929190803590602001906401000000008111156106f357600080fd5b82018360208201111561070557600080fd5b8035906020019184600183028401116401000000008311171561072757600080fd5b91908080601f016020809104026020016040519081016040528093929190818152602001838380828437600081840152601f19601f8201169050808301925050505050505091929192908035906020019064010000000081111561078a57600080fd5b82018360208201111561079c57600080fd5b803590602001918460208302840111640100000000831117156107be57600080fd5b919080806020026020016040519081016040528093929190818152602001838360200280828437600081840152601f19601f820116905080830192505050505050509192919290803590602001909291908035906020019092919080359060200190929190803560ff1690602001909291905050506111c4565b005b600060606040805190810160405280601c81526020017f19457468657265756d205369676e6564204d6573736167653a0a3332000000008152509050600081876040516020018083805190602001908083835b6020831015156108b2578051825260208201915060208101905060208303925061088d565b6001836020036101000a038019825116818451168082178552505050505050905001828152602001925050506040516020818303038152906040528051906020012090503373ffffffffffffffffffffffffffffffffffffffff1660018286898960405160008152602001604052604051808581526020018460ff1660ff1681526020018381526020018281526020019450505050506020604051602081039080840390855afa15801561096a573d6000803e3d6000fd5b5050506020604051035173ffffffffffffffffffffffffffffffffffffffff161492505050949350505050565b60008060008060608060606109aa6111f2565b600160008a815260200190815260200160002060e060405190810160405290816000820160009054906101000a900473ffffffffffffffffffffffffffffffffffffffff1673ffffffffffffffffffffffffffffffffffffffff1673ffffffffffffffffffffffffffffffffffffffff168152602001600182015481526020016002820154815260200160038201548152602001600482018054600181600116156101000203166002900480601f016020809104026020016040519081016040528092919081815260200182805460018160011615610100020316600290048015610ad65780601f10610aab57610100808354040283529160200191610ad6565b820191906000526020600020905b815481529060010190602001808311610ab957829003601f168201915b5050505050815260200160058201805480602002602001604051908101604052809291908181526020018280548015610b6457602002820191906000526020600020905b8160009054906101000a900473ffffffffffffffffffffffffffffffffffffffff1673ffffffffffffffffffffffffffffffffffffffff1681526020019060010190808311610b1a575b5050505050815260200160068201805480602002602001604051908101604052809291908181526020018280548015610bf257602002820191906000526020600020905b8160009054906101000a900473ffffffffffffffffffffffffffffffffffffffff1673ffffffffffffffffffffffffffffffffffffffff1681526020019060010190808311610ba8575b5050505050815250509050806000015181602001518260400151836060015184608001518560a001518660c00151829250819150809050975097509750975097509750975050919395979092949650565b81600060016000838152602001908152602001600020600501805490501415610c785760011515610c7357600080fd5b610ce5565b6001600082815260200190815260200160002060070160003373ffffffffffffffffffffffffffffffffffffffff1673ffffffffffffffffffffffffffffffffffffffff16815260200190815260200160002060009054906101000a900460ff161515610ce457600080fd5b5b82600160008281526020019081526020016000206003015481141515610d0a57600080fd5b610d12611249565b6080604051908101604052803373ffffffffffffffffffffffffffffffffffffffff168152602001428152602001868152602001858152509050806001600087815260200190815260200160002060080160003373ffffffffffffffffffffffffffffffffffffffff1673ffffffffffffffffffffffffffffffffffffffff16815260200190815260200160002060008201518160000160006101000a81548173ffffffffffffffffffffffffffffffffffffffff021916908373ffffffffffffffffffffffffffffffffffffffff16021790555060208201518160010155604082015181600201556060820151816003019080519060200190610e1792919061128b565b509050505050505050565b6000600160008381526020019081526020016000209050858160000160006101000a81548173ffffffffffffffffffffffffffffffffffffffff021916908373ffffffffffffffffffffffffffffffffffffffff16021790555042816001018190555084816002018190555081816003018190555083816004019080519060200190610eaf92919061130b565b5082816005019080519060200190610ec892919061138b565b5060008351141515610eee5782816005019080519060200190610eec92919061138b565b505b600183511415610f6f576001816007016000856000815181101515610f0f57fe5b9060200190602002015173ffffffffffffffffffffffffffffffffffffffff1673ffffffffffffffffffffffffffffffffffffffff16815260200190815260200160002060006101000a81548160ff021916908315150217905550611009565b6001835111156110085760008090505b83518110156110065760018260070160008684815181101515610f9e57fe5b9060200190602002015173ffffffffffffffffffffffffffffffffffffffff1673ffffffffffffffffffffffffffffffffffffffff16815260200190815260200160002060006101000a81548160ff0219169083151502179055508080600101915050610f7f565b505b5b505050505050565b6060600160008381526020019081526020016000206006018054806020026020016040519081016040528092919081815260200182805480156110a957602002820191906000526020600020905b8160009054906101000a900473ffffffffffffffffffffffffffffffffffffffff1673ffffffffffffffffffffffffffffffffffffffff168152602001906001019080831161105f575b50505050509050919050565b60606001600083815260200190815260200160002060050180548060200260200160405190810160405280929190818152602001828054801561114d57602002820191906000526020600020905b8160009054906101000a900473ffffffffffffffffffffffffffffffffffffffff1673ffffffffffffffffffffffffffffffffffffffff1681526020019060010190808311611103575b50505050509050919050565b60006001600084815260200190815260200160002060070160008373ffffffffffffffffffffffffffffffffffffffff1673ffffffffffffffffffffffffffffffffffffffff16815260200190815260200160002060009054906101000a900460ff16905092915050565b6111d08484848461083a565b15156111db57600080fd5b6111e88888888888610e22565b5050505050505050565b60e060405190810160405280600073ffffffffffffffffffffffffffffffffffffffff1681526020016000815260200160008152602001600080191681526020016060815260200160608152602001606081525090565b608060405190810160405280600073ffffffffffffffffffffffffffffffffffffffff1681526020016000815260200160008019168152602001606081525090565b828054600181600116156101000203166002900490600052602060002090601f016020900481019282601f106112cc57805160ff19168380011785556112fa565b828001600101855582156112fa579182015b828111156112f95782518255916020019190600101906112de565b5b5090506113079190611415565b5090565b828054600181600116156101000203166002900490600052602060002090601f016020900481019282601f1061134c57805160ff191683800117855561137a565b8280016001018555821561137a579182015b8281111561137957825182559160200191906001019061135e565b5b5090506113879190611415565b5090565b828054828255906000526020600020908101928215611404579160200282015b828111156114035782518260006101000a81548173ffffffffffffffffffffffffffffffffffffffff021916908373ffffffffffffffffffffffffffffffffffffffff160217905550916020019190600101906113ab565b5b509050611411919061143a565b5090565b61143791905b8082111561143357600081600090555060010161141b565b5090565b90565b61147a91905b8082111561147657600081816101000a81549073ffffffffffffffffffffffffffffffffffffffff021916905550600101611440565b5090565b9056fea165627a7a723058205c3df0adbf8a2cb75622b299d3be205802ad43a2b7235ce7fd20771aa07dd1740029",
  "source": "pragma solidity ^0.5.0;\n\ncontract SignTheDoc {\n\n    struct Creator {\n        address creatorAddress;\n        uint256 creationDate;\n        uint256 expiryDate;\n        bytes32 docHash;\n        bytes signature;\n        address[] authorisedSignerList;\n        address[] whoSigned;\n        mapping(address => bool) authorisedToSign;\n        mapping(address => Signer) signerInfo;\n    }\n\n    struct Signer {\n        address signerAddress;\n        uint256 signedDate;\n        bytes32 hash;\n        bytes signture;\n    }\n\n    //Record of the creator hash creation for easy access\n    mapping(address => bytes32[]) creatorDocHashes;\n\n    //Hash of the data is linked to Creator Struct\n    mapping(bytes32 => Creator) docData;\n\n    Signer[] signers;\n\n\n  modifier isAuthorised(bytes32 docHash) {\n    if(docData[docHash].authorisedSignerList.length == 0) {\n      require(true);\n    } else {\n      require(docData[docHash].authorisedToSign[msg.sender]);\n    }\n      _;\n  }\n\n  modifier isDocHashSame(bytes32 signerDocHash) {\n    require(signerDocHash == docData[signerDocHash].docHash);\n    _;\n  }\n\n\n    function createDocToSign(\n      address creatorAddress,\n      uint256 expiryDate,\n      bytes memory signature,\n      address[] memory authorisedSignerList,\n      bytes32 docHash,\n      bytes32 r,\n      bytes32 s,\n      uint8 v\n    )\n    public\n    {\n      require(verifySignature(docHash, r, s, v));\n      recordInitialDoc(\n        creatorAddress,\n        expiryDate,\n        signature,\n        authorisedSignerList,\n        docHash\n      );\n    }\n\n    function recordInitialDoc(\n      address creatorAddress,\n      uint256 expiryDate,\n      bytes memory signature,\n      address[] memory authorisedSignerList,\n      bytes32 docHash\n    )\n    public\n    {\n      Creator storage creator = docData[docHash];\n\n      creator.creatorAddress = creatorAddress;\n      creator.creationDate = block.timestamp;\n      creator.expiryDate = expiryDate;\n      creator.docHash = docHash;\n      creator.signature = signature;\n      creator.authorisedSignerList = authorisedSignerList;\n\n      if(authorisedSignerList.length != 0) {\n        creator.authorisedSignerList = authorisedSignerList;\n      }\n\n      if(authorisedSignerList.length == 1) {\n          creator.authorisedToSign[authorisedSignerList[0]] = true;\n      } else if (authorisedSignerList.length > 1) {\n          for (uint i = 0; i < authorisedSignerList.length; i++) {\n          creator.authorisedToSign[authorisedSignerList[i]] = true;\n        }\n    }\n  }\n\n  function verifySignature(bytes32 hash, bytes32 r, bytes32 s, uint8 v) public view returns(bool) {\n    bytes memory prefix = \"\\x19Ethereum Signed Message:\\n32\";\n    bytes32 prefixedHash = keccak256(abi.encodePacked(prefix, hash));\n    return ecrecover(prefixedHash, v, r, s) == msg.sender;\n  }\n    //Retrun the content of the struct\n  function getDocData(bytes32 docHash)\n    public\n    view\n    returns(\n      address creatorAddress,\n      uint256 creationDate,\n      uint256 expiryDate,\n      bytes32 dochash,\n      bytes memory signature,\n      address[] memory authorisedSigners,\n      address[] memory whoSigned\n    )\n    {\n      Creator memory cr = docData[docHash];\n      return(\n        cr.creatorAddress,\n        cr.creationDate,\n        cr.expiryDate,\n        cr.docHash,\n        cr.signature,\n        cr.authorisedSignerList,\n        cr.whoSigned\n      );\n    }\n\n    function signTheDoc(bytes32 signerDocHash, bytes memory signature)\n      public\n      isAuthorised(signerDocHash)\n      isDocHashSame(signerDocHash)\n    {\n        Signer memory signer = Signer(msg.sender, block.timestamp, signerDocHash, signature);\n        docData[signerDocHash].signerInfo[msg.sender] = signer;\n    }\n\n    function isAuthorisedToSign(bytes32 docHash, address signer) public view returns(bool) {\n      return docData[docHash].authorisedToSign[signer];\n    }\n\n    function getAutorisedSingingList(bytes32 docHash) public view returns(address[] memory) {\n      return docData[docHash].authorisedSignerList;\n    }\n\n    function getWhoSigned(bytes32 docHash) public view returns(address[] memory) {\n      return docData[docHash].whoSigned;\n    }\n\n}\n",
  "sourcePath": "/home/rav/proj/mini-proj/contracts/SignTheDoc.sol",
  "compiler": {
    "name": "solc",
    "version": "0.5.0+commit.1d4f565a.Emscripten.clang"
  },
  "schemaVersion": "3.0.1",
  "updatedAt": "2019-01-10T11:02:12.973Z",
  "devdoc": {
    "methods": {}
  },
  "userdoc": {
    "methods": {}
  }
}