{
  "contractName": "Signature",
  "abi": [
    {
      "constant": true,
      "inputs": [
        {
          "name": "hash",
          "type": "bytes32"
        },
        {
          "name": "r",
          "type": "bytes32"
        },
        {
          "name": "s",
          "type": "bytes32"
        },
        {
          "name": "v",
          "type": "uint8"
        }
      ],
      "name": "verifySignature",
      "outputs": [
        {
          "name": "",
          "type": "bool"
        }
      ],
      "payable": false,
      "stateMutability": "view",
      "type": "function"
    }
  ],
  "bytecode": "0x608060405234801561001057600080fd5b50610243806100206000396000f3fe608060405260043610610041576000357c0100000000000000000000000000000000000000000000000000000000900463ffffffff1680630d413d6214610046575b600080fd5b34801561005257600080fd5b506100a06004803603608081101561006957600080fd5b81019080803590602001909291908035906020019092919080359060200190929190803560ff1690602001909291905050506100ba565b604051808215151515815260200191505060405180910390f35b600060606040805190810160405280601c81526020017f19457468657265756d205369676e6564204d6573736167653a0a3332000000008152509050600081876040516020018083805190602001908083835b602083101515610132578051825260208201915060208101905060208303925061010d565b6001836020036101000a038019825116818451168082178552505050505050905001828152602001925050506040516020818303038152906040528051906020012090503373ffffffffffffffffffffffffffffffffffffffff1660018286898960405160008152602001604052604051808581526020018460ff1660ff1681526020018381526020018281526020019450505050506020604051602081039080840390855afa1580156101ea573d6000803e3d6000fd5b5050506020604051035173ffffffffffffffffffffffffffffffffffffffff16149250505094935050505056fea165627a7a723058203fb887bcf3b84a932bb24e76ce68417e33102a9991d2ad8fc7dbf602aafaa3b70029",
  "source": "pragma solidity ^0.5.0;\n\ncontract Signature {\n\n  function verifySignature(bytes32 hash, bytes32 r, bytes32 s, uint8 v) public view returns(bool) {\n    bytes memory prefix = \"\\x19Ethereum Signed Message:\\n32\";\n    bytes32 prefixedHash = keccak256(abi.encodePacked(prefix, hash));\n    return ecrecover(prefixedHash, v, r, s) == msg.sender;\n  }\n\n}\n",
  "sourcePath": "/home/rav/proj/mini-proj/contracts/mocks/VerifySign.sol",
  "compiler": {
    "name": "solc",
    "version": "0.5.0+commit.1d4f565a.Emscripten.clang"
  },
  "schemaVersion": "3.0.1",
  "updatedAt": "2019-01-27T06:14:25.847Z",
  "devdoc": {
    "methods": {}
  },
  "userdoc": {
    "methods": {}
  }
}