{
  "contractName": "SignTheDoc",
  "abi": [
    {
      "constant": false,
      "inputs": [
        {
          "name": "expiryDate",
          "type": "uint256"
        },
        {
          "name": "signature",
          "type": "bytes"
        },
        {
          "name": "authorisedSignerList",
          "type": "address[]"
        },
        {
          "name": "docHash",
          "type": "bytes32"
        },
        {
          "name": "r",
          "type": "bytes32"
        },
        {
          "name": "s",
          "type": "bytes32"
        },
        {
          "name": "v",
          "type": "uint8"
        }
      ],
      "name": "createDocToSign",
      "outputs": [],
      "payable": false,
      "stateMutability": "nonpayable",
      "type": "function"
    },
    {
      "constant": false,
      "inputs": [
        {
          "name": "expiryDate",
          "type": "uint256"
        },
        {
          "name": "signature",
          "type": "bytes"
        },
        {
          "name": "authorisedSignerList",
          "type": "address[]"
        },
        {
          "name": "docHash",
          "type": "bytes32"
        }
      ],
      "name": "recordInitialDoc",
      "outputs": [],
      "payable": false,
      "stateMutability": "nonpayable",
      "type": "function"
    },
    {
      "constant": true,
      "inputs": [
        {
          "name": "regDocHash",
          "type": "bytes32"
        }
      ],
      "name": "getDocData",
      "outputs": [
        {
          "name": "creatorAddress",
          "type": "address"
        },
        {
          "name": "creationDate",
          "type": "uint256"
        },
        {
          "name": "expiryDate",
          "type": "uint256"
        },
        {
          "name": "docHash",
          "type": "bytes32"
        },
        {
          "name": "signature",
          "type": "bytes"
        },
        {
          "name": "authorisedSigners",
          "type": "address[]"
        },
        {
          "name": "whoSigned",
          "type": "address[]"
        }
      ],
      "payable": false,
      "stateMutability": "view",
      "type": "function"
    },
    {
      "constant": false,
      "inputs": [
        {
          "name": "signerDocHash",
          "type": "bytes32"
        },
        {
          "name": "signature",
          "type": "bytes"
        }
      ],
      "name": "signTheDoc",
      "outputs": [],
      "payable": false,
      "stateMutability": "nonpayable",
      "type": "function"
    },
    {
      "constant": true,
      "inputs": [
        {
          "name": "docHash",
          "type": "bytes32"
        },
        {
          "name": "signer",
          "type": "address"
        }
      ],
      "name": "isAuthorisedToSign",
      "outputs": [
        {
          "name": "",
          "type": "bool"
        }
      ],
      "payable": false,
      "stateMutability": "view",
      "type": "function"
    },
    {
      "constant": true,
      "inputs": [
        {
          "name": "docHash",
          "type": "bytes32"
        }
      ],
      "name": "getAutorisedSingingList",
      "outputs": [
        {
          "name": "",
          "type": "address[]"
        }
      ],
      "payable": false,
      "stateMutability": "view",
      "type": "function"
    },
    {
      "constant": true,
      "inputs": [
        {
          "name": "docHash",
          "type": "bytes32"
        }
      ],
      "name": "getWhoSigned",
      "outputs": [
        {
          "name": "",
          "type": "address[]"
        }
      ],
      "payable": false,
      "stateMutability": "view",
      "type": "function"
    }
  ],
  "bytecode": "0x608060405234801561001057600080fd5b506114de806100206000396000f3fe608060405260043610610083576000357c0100000000000000000000000000000000000000000000000000000000900463ffffffff168063257e888e146100885780632fcde8ef1461021457806337738c1a146102e65780639a3379e514610477578063d799027114610507578063df4610a914610677578063ef4da62d14610707575b600080fd5b34801561009457600080fd5b506100c1600480360360208110156100ab57600080fd5b810190808035906020019092919050505061077a565b604051808873ffffffffffffffffffffffffffffffffffffffff1673ffffffffffffffffffffffffffffffffffffffff168152602001878152602001868152602001858152602001806020018060200180602001848103845287818151815260200191508051906020019080838360005b8381101561014d578082015181840152602081019050610132565b50505050905090810190601f16801561017a5780820380516001836020036101000a031916815260200191505b50848103835286818151815260200191508051906020019060200280838360005b838110156101b657808201518184015260208101905061019b565b50505050905001848103825285818151815260200191508051906020019060200280838360005b838110156101f85780820151818401526020810190506101dd565b505050509050019a505050505050505050505060405180910390f35b34801561022057600080fd5b506102e46004803603604081101561023757600080fd5b81019080803590602001909291908035906020019064010000000081111561025e57600080fd5b82018360208201111561027057600080fd5b8035906020019184600183028401116401000000008311171561029257600080fd5b91908080601f016020809104026020016040519081016040528093929190818152602001838380828437600081840152601f19601f820116905080830192505050505050509192919290505050610a26565b005b3480156102f257600080fd5b50610475600480360360e081101561030957600080fd5b81019080803590602001909291908035906020019064010000000081111561033057600080fd5b82018360208201111561034257600080fd5b8035906020019184600183028401116401000000008311171561036457600080fd5b91908080601f016020809104026020016040519081016040528093929190818152602001838380828437600081840152601f19601f820116905080830192505050505050509192919290803590602001906401000000008111156103c757600080fd5b8201836020820111156103d957600080fd5b803590602001918460208302840111640100000000831117156103fb57600080fd5b919080806020026020016040519081016040528093929190818152602001838360200280828437600081840152601f19601f820116905080830192505050505050509192919290803590602001909291908035906020019092919080359060200190929190803560ff169060200190929190505050610c05565b005b34801561048357600080fd5b506104b06004803603602081101561049a57600080fd5b8101908080359060200190929190505050610e86565b6040518080602001828103825283818151815260200191508051906020019060200280838360005b838110156104f35780820151818401526020810190506104d8565b505050509050019250505060405180910390f35b34801561051357600080fd5b506106756004803603608081101561052a57600080fd5b81019080803590602001909291908035906020019064010000000081111561055157600080fd5b82018360208201111561056357600080fd5b8035906020019184600183028401116401000000008311171561058557600080fd5b91908080601f016020809104026020016040519081016040528093929190818152602001838380828437600081840152601f19601f820116905080830192505050505050509192919290803590602001906401000000008111156105e857600080fd5b8201836020820111156105fa57600080fd5b8035906020019184602083028401116401000000008311171561061c57600080fd5b919080806020026020016040519081016040528093929190818152602001838360200280828437600081840152601f19601f82011690508083019250505050505050919291929080359060200190929190505050610f2a565b005b34801561068357600080fd5b506106b06004803603602081101561069a57600080fd5b8101908080359060200190929190505050611118565b6040518080602001828103825283818151815260200191508051906020019060200280838360005b838110156106f35780820151818401526020810190506106d8565b505050509050019250505060405180910390f35b34801561071357600080fd5b506107606004803603604081101561072a57600080fd5b8101908080359060200190929190803573ffffffffffffffffffffffffffffffffffffffff1690602001909291905050506111bc565b604051808215151515815260200191505060405180910390f35b600080600080606080606061078d611227565b600160008a815260200190815260200160002060e060405190810160405290816000820160009054906101000a900473ffffffffffffffffffffffffffffffffffffffff1673ffffffffffffffffffffffffffffffffffffffff1673ffffffffffffffffffffffffffffffffffffffff168152602001600182015481526020016002820154815260200160038201548152602001600482018054600181600116156101000203166002900480601f0160208091040260200160405190810160405280929190818152602001828054600181600116156101000203166002900480156108b95780601f1061088e576101008083540402835291602001916108b9565b820191906000526020600020905b81548152906001019060200180831161089c57829003601f168201915b505050505081526020016005820180548060200260200160405190810160405280929190818152602001828054801561094757602002820191906000526020600020905b8160009054906101000a900473ffffffffffffffffffffffffffffffffffffffff1673ffffffffffffffffffffffffffffffffffffffff16815260200190600101908083116108fd575b50505050508152602001600682018054806020026020016040519081016040528092919081815260200182805480156109d557602002820191906000526020600020905b8160009054906101000a900473ffffffffffffffffffffffffffffffffffffffff1673ffffffffffffffffffffffffffffffffffffffff168152602001906001019080831161098b575b5050505050815250509050806000015181602001518260400151836060015184608001518560a001518660c00151829250819150809050975097509750975097509750975050919395979092949650565b81600060016000838152602001908152602001600020600501805490501415610a5b5760011515610a5657600080fd5b610ac8565b6001600082815260200190815260200160002060070160003373ffffffffffffffffffffffffffffffffffffffff1673ffffffffffffffffffffffffffffffffffffffff16815260200190815260200160002060009054906101000a900460ff161515610ac757600080fd5b5b82600160008281526020019081526020016000206003015481141515610aed57600080fd5b610af561127e565b6080604051908101604052803373ffffffffffffffffffffffffffffffffffffffff168152602001428152602001868152602001858152509050806001600087815260200190815260200160002060080160003373ffffffffffffffffffffffffffffffffffffffff1673ffffffffffffffffffffffffffffffffffffffff16815260200190815260200160002060008201518160000160006101000a81548173ffffffffffffffffffffffffffffffffffffffff021916908373ffffffffffffffffffffffffffffffffffffffff16021790555060208201518160010155604082015181600201556060820151816003019080519060200190610bfa9291906112c0565b509050505050505050565b8383838360606040805190810160405280601c81526020017f19457468657265756d205369676e6564204d6573736167653a0a3332000000008152509050600081866040516020018083805190602001908083835b602083101515610c7f5780518252602082019150602081019050602083039250610c5a565b6001836020036101000a038019825116818451168082178552505050505050905001828152602001925050506040516020818303038152906040528051906020012090503373ffffffffffffffffffffffffffffffffffffffff1660018285888860405160008152602001604052604051808581526020018460ff1660ff1681526020018381526020018281526020019450505050506020604051602081039080840390855afa158015610d37573d6000803e3d6000fd5b5050506020604051035173ffffffffffffffffffffffffffffffffffffffff16141515610dcc576040517f08c379a000000000000000000000000000000000000000000000000000000000815260040180806020018281038252601d8152602001807f5369676e617475726520766572696669636174696f6e206661696c656400000081525060200191505060405180910390fd5b8c4281111515610e6a576040517f08c379a00000000000000000000000000000000000000000000000000000000081526004018080602001828103825260388152602001807f636f6e74726163742065787069727920646174652073686f756c64206265206781526020017f726561746572207468616e2063757272656e742074696d65000000000000000081525060400191505060405180910390fd5b610e768e8e8e8e610f2a565b5050505050505050505050505050565b606060016000838152602001908152602001600020600601805480602002602001604051908101604052809291908181526020018280548015610f1e57602002820191906000526020600020905b8160009054906101000a900473ffffffffffffffffffffffffffffffffffffffff1673ffffffffffffffffffffffffffffffffffffffff1681526020019060010190808311610ed4575b50505050509050919050565b6000600160008381526020019081526020016000209050338160000160006101000a81548173ffffffffffffffffffffffffffffffffffffffff021916908373ffffffffffffffffffffffffffffffffffffffff16021790555042816001018190555084816002018190555081816003018190555083816004019080519060200190610fb7929190611340565b5082816005019080519060200190610fd09291906113c0565b5060008351141515610ff65782816005019080519060200190610ff49291906113c0565b505b60018351141561107757600181600701600085600081518110151561101757fe5b9060200190602002015173ffffffffffffffffffffffffffffffffffffffff1673ffffffffffffffffffffffffffffffffffffffff16815260200190815260200160002060006101000a81548160ff021916908315150217905550611111565b6001835111156111105760008090505b835181101561110e57600182600701600086848151811015156110a657fe5b9060200190602002015173ffffffffffffffffffffffffffffffffffffffff1673ffffffffffffffffffffffffffffffffffffffff16815260200190815260200160002060006101000a81548160ff0219169083151502179055508080600101915050611087565b505b5b5050505050565b6060600160008381526020019081526020016000206005018054806020026020016040519081016040528092919081815260200182805480156111b057602002820191906000526020600020905b8160009054906101000a900473ffffffffffffffffffffffffffffffffffffffff1673ffffffffffffffffffffffffffffffffffffffff1681526020019060010190808311611166575b50505050509050919050565b60006001600084815260200190815260200160002060070160008373ffffffffffffffffffffffffffffffffffffffff1673ffffffffffffffffffffffffffffffffffffffff16815260200190815260200160002060009054906101000a900460ff16905092915050565b60e060405190810160405280600073ffffffffffffffffffffffffffffffffffffffff1681526020016000815260200160008152602001600080191681526020016060815260200160608152602001606081525090565b608060405190810160405280600073ffffffffffffffffffffffffffffffffffffffff1681526020016000815260200160008019168152602001606081525090565b828054600181600116156101000203166002900490600052602060002090601f016020900481019282601f1061130157805160ff191683800117855561132f565b8280016001018555821561132f579182015b8281111561132e578251825591602001919060010190611313565b5b50905061133c919061144a565b5090565b828054600181600116156101000203166002900490600052602060002090601f016020900481019282601f1061138157805160ff19168380011785556113af565b828001600101855582156113af579182015b828111156113ae578251825591602001919060010190611393565b5b5090506113bc919061144a565b5090565b828054828255906000526020600020908101928215611439579160200282015b828111156114385782518260006101000a81548173ffffffffffffffffffffffffffffffffffffffff021916908373ffffffffffffffffffffffffffffffffffffffff160217905550916020019190600101906113e0565b5b509050611446919061146f565b5090565b61146c91905b80821115611468576000816000905550600101611450565b5090565b90565b6114af91905b808211156114ab57600081816101000a81549073ffffffffffffffffffffffffffffffffffffffff021916905550600101611475565b5090565b9056fea165627a7a72305820ec8d8289cb8c185f01ee6e6c4c2501ef83c1e9f9566ac29242610b3eeda7cb1a0029",
  "source": "pragma solidity ^0.5.0;\n\ncontract SignTheDoc {\n\n    struct Creator {\n        address creatorAddress;\n        uint256 creationDate;\n        uint256 expiryDate;\n        bytes32 docHash;\n        bytes signature;\n        address[] authorisedSignerList;\n        address[] whoSigned;\n        mapping(address => bool) authorisedToSign;\n        mapping(address => Signer) signerInfo;\n    }\n\n    struct Signer {\n        address signerAddress;\n        uint256 signedDate;\n        bytes32 hash;\n        bytes signture;\n    }\n\n    //Record of the creator hash creation for easy access\n    mapping(address => bytes32[]) creatorDocHashes;\n\n    //Hash of the data is linked to Creator Struct\n    mapping(bytes32 => Creator) docData;\n\n    //Probably unnecessary\n    Signer[] signers;\n\n  modifier isAuthorised(bytes32 docHash) {\n    if(docData[docHash].authorisedSignerList.length == 0) {\n      require(true);\n    } else {\n      require(docData[docHash].authorisedToSign[msg.sender]);\n    }\n      _;\n  }\n\n  modifier isDocHashSame(bytes32 signerDocHash) {\n    require(signerDocHash == docData[signerDocHash].docHash);\n    _;\n  }\n\n  modifier isExpired(uint256 expiryDate) {\n    require(\n      expiryDate > block.timestamp,\n      'contract expiry date should be greater than current time');\n    _;\n  }\n\n  function createDocToSign(\n    uint256 expiryDate,\n    bytes memory signature,\n    address[] memory authorisedSignerList,\n    bytes32 docHash,\n    bytes32 r,\n    bytes32 s,\n    uint8 v\n  )\n  public\n  verifySignature(docHash, r, s, v)\n  isExpired(expiryDate)\n  {\n    recordInitialDoc(\n      expiryDate,\n      signature,\n      authorisedSignerList,\n      docHash\n    );\n  }\n\n  function recordInitialDoc(\n    uint256 expiryDate,\n    bytes memory signature,\n    address[] memory authorisedSignerList,\n    bytes32 docHash\n  )\n  public\n  {\n\n    Creator storage creator = docData[docHash];\n\n    creator.creatorAddress = msg.sender;\n    creator.creationDate = block.timestamp;\n    creator.expiryDate = expiryDate;\n    creator.docHash = docHash;\n    creator.signature = signature;\n    //possible bug\n    creator.authorisedSignerList = authorisedSignerList;\n\n    if(authorisedSignerList.length != 0) {\n      creator.authorisedSignerList = authorisedSignerList;\n    }\n\n    if(authorisedSignerList.length == 1) {\n        creator.authorisedToSign[authorisedSignerList[0]] = true;\n    } else if (authorisedSignerList.length > 1) {\n        for (uint i = 0; i < authorisedSignerList.length; i++) {\n        creator.authorisedToSign[authorisedSignerList[i]] = true;\n      }\n  }\n\n}\n\n  modifier verifySignature(bytes32 hash, bytes32 r, bytes32 s, uint8 v) {\n    bytes memory prefix = \"\\x19Ethereum Signed Message:\\n32\";\n    bytes32 prefixedHash = keccak256(abi.encodePacked(prefix, hash));\n    require(ecrecover(prefixedHash, v, r, s) == msg.sender,\n      'Signature verification failed');\n    _;\n  }\n\n    //Retrun the content of the struct\n  function getDocData(bytes32 regDocHash)\n    public\n    view\n    returns(\n      address creatorAddress,\n      uint256 creationDate,\n      uint256 expiryDate,\n      bytes32 docHash,\n      bytes memory signature,\n      address[] memory authorisedSigners,\n      address[] memory whoSigned\n    )\n    {\n      Creator memory cr = docData[regDocHash];\n      return(\n        cr.creatorAddress,\n        cr.creationDate,\n        cr.expiryDate,\n        cr.docHash,\n        cr.signature,\n        cr.authorisedSignerList,\n        cr.whoSigned\n      );\n    }\n\n    function signTheDoc(bytes32 signerDocHash, bytes memory signature)\n      public\n      isAuthorised(signerDocHash)\n      isDocHashSame(signerDocHash)\n    {\n        Signer memory signer = Signer(msg.sender, block.timestamp, signerDocHash, signature);\n        docData[signerDocHash].signerInfo[msg.sender] = signer;\n    }\n\n    function isAuthorisedToSign(bytes32 docHash, address signer) public view returns(bool) {\n      return docData[docHash].authorisedToSign[signer];\n    }\n\n    function getAutorisedSingingList(bytes32 docHash) public view returns(address[] memory) {\n      return docData[docHash].authorisedSignerList;\n    }\n\n    function getWhoSigned(bytes32 docHash) public view returns(address[] memory) {\n      return docData[docHash].whoSigned;\n    }\n\n}\n",
  "sourcePath": "/home/rav/proj/mini-proj/contracts/SignTheDoc.sol",
  "compiler": {
    "name": "solc",
    "version": "0.5.0+commit.1d4f565a.Emscripten.clang"
  },
  "schemaVersion": "3.0.1",
  "updatedAt": "2019-01-31T16:12:31.548Z",
  "devdoc": {
    "methods": {}
  },
  "userdoc": {
    "methods": {}
  }
}